:10000000FA2B00308A000408840A82070034163470
:1000100004345E3401340A340034013400341634BC
:100020000434C834003496340434F43401341634BF
:100030000434F434013474340534F4340134263493
:100040000534EE340234163404345E3401340A3498
:1000500000340134003416340434C8340034963487
:100060000434F434013416340434F43401341F34C9
:100070000634F434013474340534EE340234163466
:1000800004345E3401340A3400340134003416344C
:100090000434C8340034A9340834F4340134E0346E
:1000A0000634F434013474340534F4340134263421
:1000B000053426340234963404348A340234483405
:1000C00007345E3401340A340034013400344834D7
:1000D0000734C8340034E0340634F4340134743462
:1000E0000534F43401341F340634F43401347434E8
:0600F0000534E83403347E
:1003C6001D340034700871040319EA29EB29F22957
:1003D600831203131708F0390C389700F629F0300A
:1003E6008312031397050800052AC730F200FB297C
:1003F600F20BFA29FE29FF290130F0020030031C16
:10040600F103F10270087104031D0A2A0B2AF82968
:1004160008000730831203139F049F111F129F12B7
:1004260083160313051405118511861106308312F0
:10043600031392000030A600A70047220800F4012B
:10044600F501701C272A282A2E2A7208F407031899
:10045600F50A7308F50701300310F20DF30DFF3EA0
:10046600031D2F2A01300310F10CF00CFF3E031D73
:10047600362A70087104031D412A422A242A750867
:10048600F1007408F0000800831203132708FC002B
:100496002608FB00FB0EFC0EF030FC057B080F392E
:1004A600FC04F030FB057B08F0007C08F10000300E
:1004B600F11BFF30F200F3000030F7003D30F6008C
:1004C6000930F5000030F4005D237008FF3E831606
:1004D600031392006430F6000030F7001208FB00A8
:1004E600FC017B08F0007C08F1003230F20000309D
:1004F600F30022227108F9007008F800F422760849
:10050600FD007D08FB0002300310FB0CFF3E031DBF
:10051600872A7B0883120313950008000C22831296
:1005260003130518972A982A922A0130F000003002
:10053600F100E521831203138515A901AA01DE2A1C
:10054600031083120313051D03140318AB2AAF2AE5
:10055600831203130515B22A831203130511290802
:10056600A80001300310A80DFF3E031DB52A031095
:10057600280D013E84000120A6000120A700472285
:10058600831203132908A80001300310A80DFF3EAB
:10059600031DC82A0310280D033E84000120F00025
:1005A6000120F100F721013083120313A907031874
:1005B600AA0A0030AA072A08803AFF0080307F0284
:1005C600031DE72A1D302902031CEA2AEB2AA32A67
:1005D6008312031385110030F000F100E521922A01
:1005E600002883120313A101F71FFA2AFB2A022B04
:1005F600F609F709F60A0319F70AA101A10AF91F74
:10060600052B062B0F2BF809F909F80A0319F90A25
:100616000130FA007A08A106A201A3017608770440
:100626000319162B172B4E2BA001A00A252B0130E0
:100636000310F60DF70DFF3E031D1B2B0130FA00CC
:100646007A08A007F71F282B292B1A2B0130031035
:10065600A20DA30DFF3E031D2A2B77087902031D69
:10066600362B76087802031C392B3A2B412B760859
:10067600F8027708031CF903F9022214013003106B
:10068600F70CF60CFF3E031D422B0130A002031DA2
:100696004D2B4E2B292B21080319522B532B582B4C
:1006A600A209A309A20A0319A30A2308F70022082C
:1006B600F600080083120313A101F31F632B642BBA
:1006C600712BF009F109F209F309F00A0319F10A8D
:1006D6000319F20A0319F30AA101A10AF71F742BE1
:1006E600752B842BF409F509F609F709F40A0319A1
:1006F600F50A0319F60A0319F70A0130F800780813
:10070600A1060030A5000030A4000030A300003090
:10071600A20073087204710470040319932B942BBE
:10072600E12BA001A00AA42B0130F8000310F00D64
:10073600F10DF20DF30DF80B992B0130F800780846
:10074600A007F31FA72BA82B972B0130F800031047
:10075600A20DA30DA40DA50DF80BAA2B7308770205
:10076600031DBF2B72087602031DBF2B710875028D
:10077600031DBF2B70087402031CC22BC32BD22B84
:100786007008F4027108031C710FF5027208031C4D
:10079600720FF6027308031C730FF702221401305E
:1007A6000310F30CF20CF10CF00CFF3E031DD32BDF
:1007B6000130A002031DE02BE12BA82B2108031911
:1007C600E52BE62BF12BA209A309A409A509A20A88
:1007D6000319A30A0319A40A0319A50A2508F30095
:1007E6002408F2002308F1002208F0000800E321A3
:0A07F600AB00E421AC008301912A5E
:02400E00503F21
:00000001FF
